{"src/LosslessKlerosProxy.sol":{"LosslessKlerosProxy":{"abi":[{"inputs":[{"internalType":"address","name":"_governor","type":"address"},{"internalType":"address","name":"_losslessGovernance","type":"address"},{"internalType":"address","name":"_arbitrableProxy","type":"address"},{"internalType":"address","name":"_klerosLiquid","type":"address"},{"internalType":"uint256","name":"_courtID","type":"uint256"},{"internalType":"uint256","name":"_numberOfJurors","type":"uint256"},{"internalType":"string","name":"_metaevidenceURI","type":"string"}],"stateMutability":"nonpayable","type":"constructor"},{"anonymous":false,"inputs":[{"indexed":false,"internalType":"uint256","name":"_reportID","type":"uint256"}],"name":"ArbitrationExecution","type":"event"},{"inputs":[],"name":"arbitrableProxy","outputs":[{"internalType":"contract IArbitrableProxy","name":"","type":"address"}],"stateMutability":"view","type":"function"},{"inputs":[{"internalType":"uint256","name":"_courtID","type":"uint256"}],"name":"changeCourtID","outputs":[],"stateMutability":"nonpayable","type":"function"},{"inputs":[{"internalType":"address","name":"_newGovernor","type":"address"}],"name":"changeGovernor","outputs":[],"stateMutability":"nonpayable","type":"function"},{"inputs":[{"internalType":"string","name":"_metaevidenceURI","type":"string"}],"name":"changeMetaevidenceURI","outputs":[],"stateMutability":"nonpayable","type":"function"},{"inputs":[{"internalType":"uint256","name":"_numberOfJurors","type":"uint256"}],"name":"changeNumberOfJurors","outputs":[],"stateMutability":"nonpayable","type":"function"},{"inputs":[],"name":"courtID","outputs":[{"internalType":"uint256","name":"","type":"uint256"}],"stateMutability":"view","type":"function"},{"inputs":[{"internalType":"uint256","name":"_reportID","type":"uint256"}],"name":"executeVote","outputs":[],"stateMutability":"nonpayable","type":"function"},{"inputs":[],"name":"governor","outputs":[{"internalType":"address","name":"","type":"address"}],"stateMutability":"view","type":"function"},{"inputs":[],"name":"klerosLiquid","outputs":[{"internalType":"contract IKlerosLiquid","name":"","type":"address"}],"stateMutability":"view","type":"function"},{"inputs":[],"name":"losslessGovernance","outputs":[{"internalType":"contract ILosslessGovernance","name":"","type":"address"}],"stateMutability":"view","type":"function"},{"inputs":[],"name":"metaevidenceURI","outputs":[{"internalType":"string","name":"","type":"string"}],"stateMutability":"view","type":"function"},{"inputs":[],"name":"numberOfJurors","outputs":[{"internalType":"uint256","name":"","type":"uint256"}],"stateMutability":"view","type":"function"},{"inputs":[{"internalType":"uint256","name":"","type":"uint256"}],"name":"reportIDToDispute","outputs":[{"internalType":"uint256","name":"disputeID","type":"uint256"},{"internalType":"bool","name":"isExecuted","type":"bool"}],"stateMutability":"view","type":"function"},{"inputs":[{"internalType":"uint256","name":"_reportID","type":"uint256"}],"name":"requestArbitration","outputs":[],"stateMutability":"payable","type":"function"}],"devdoc":{"kind":"dev","methods":{},"version":1},"evm":{"bytecode":{"linkReferences":{},"object":"60806040523480156200001157600080fd5b506040516200108b3803806200108b8339810160408190526200003491620000d7565b600080546001600160a01b03808a166001600160a01b031992831617909255600180548984169083161790556002805488841690831617905560038054928716929091169190911790556004839055600582905560066200009682826200029a565b505050505050505062000366565b80516001600160a01b0381168114620000bc57600080fd5b919050565b634e487b7160e01b600052604160045260246000fd5b600080600080600080600060e0888a031215620000f357600080fd5b620000fe88620000a4565b965060206200010f818a01620000a4565b96506200011f60408a01620000a4565b95506200012f60608a01620000a4565b60808a015160a08b015160c08c015192975090955093506001600160401b03808211156200015c57600080fd5b818b0191508b601f8301126200017157600080fd5b815181811115620001865762000186620000c1565b604051601f8201601f19908116603f01168101908382118183101715620001b157620001b1620000c1565b816040528281528e86848701011115620001ca57600080fd5b600093505b82841015620001ee5784840186015181850187015292850192620001cf565b600086848301015280965050505050505092959891949750929550565b600181811c908216806200022057607f821691505b6020821081036200024157634e487b7160e01b600052602260045260246000fd5b50919050565b601f8211156200029557600081815260208120601f850160051c81016020861015620002705750805b601f850160051c820191505b8181101562000291578281556001016200027c565b5050505b505050565b81516001600160401b03811115620002b657620002b6620000c1565b620002ce81620002c784546200020b565b8462000247565b602080601f831160018114620003065760008415620002ed5750858301515b600019600386901b1c1916600185901b17855562000291565b600085815260208120601f198616915b82811015620003375788860151825594840194600190910190840162000316565b5085821015620003565787850151600019600388901b60f8161c191681555b5050505050600190811b01905550565b610d1580620003766000396000f3fe6080604052600436106100bd5760003560e01c8063936b74991161006f578063936b7499146101ba5780639fdd0f9914610206578063a1e55f8c14610226578063d0ab122614610246578063dc3909ea14610266578063e4c0aaf41461027c578063f98a4eca1461029c57600080fd5b8063058431eb146100c25780630c340a24146100eb57806331402a571461012357806354c725f11461013857806355538ac51461015857806365319d061461017a5780636bb6cd861461019a575b600080fd5b3480156100ce57600080fd5b506100d860045481565b6040519081526020015b60405180910390f35b3480156100f757600080fd5b5060005461010b906001600160a01b031681565b6040516001600160a01b0390911681526020016100e2565b610136610131366004610837565b6102bc565b005b34801561014457600080fd5b50610136610153366004610837565b61045f565b34801561016457600080fd5b5061016d61048e565b6040516100e29190610896565b34801561018657600080fd5b50610136610195366004610837565b61051c565b3480156101a657600080fd5b5060035461010b906001600160a01b031681565b3480156101c657600080fd5b506101f16101d5366004610837565b6007602052600090815260409020805460019091015460ff1682565b604080519283529015156020830152016100e2565b34801561021257600080fd5b5060025461010b906001600160a01b031681565b34801561023257600080fd5b506101366102413660046108f7565b61054b565b34801561025257600080fd5b5060015461010b906001600160a01b031681565b34801561027257600080fd5b506100d860055481565b34801561028857600080fd5b5061013661029736600461098c565b610585565b3480156102a857600080fd5b506101366102b7366004610837565b6105d1565b6000818152600760205260409020541561032d5760405162461bcd60e51b815260206004820152602760248201527f4469737075746520616c7265616479206372656174656420666f722074686973604482015266081c995c1bdc9d60ca1b60648201526084015b60405180910390fd5b60045460055460408051602081019390935282810191909152805180830382018152606083019182905260035463f7434ea960e01b909252916000916001600160a01b03169063f7434ea990610387908590606401610896565b602060405180830381865afa1580156103a4573d6000803e3d6000fd5b505050506040513d601f19601f820116820180604052508101906103c891906109b5565b6002805460405163e2c7981b60e01b81529293506000926001600160a01b039091169163e2c7981b913491610404918891600691600401610a08565b60206040518083038185885af1158015610422573d6000803e3d6000fd5b50505050506040513d601f19601f8201168201806040525081019061044791906109b5565b60009485526007602052604090942093909355505050565b6000546001600160a01b031633146104895760405162461bcd60e51b815260040161032490610aac565b600555565b6006805461049b906109ce565b80601f01602080910402602001604051908101604052809291908181526020018280546104c7906109ce565b80156105145780601f106104e957610100808354040283529160200191610514565b820191906000526020600020905b8154815290600101906020018083116104f757829003601f168201915b505050505081565b6000546001600160a01b031633146105465760405162461bcd60e51b815260040161032490610aac565b600455565b6000546001600160a01b031633146105755760405162461bcd60e51b815260040161032490610aac565b60066105818282610b32565b5050565b6000546001600160a01b031633146105af5760405162461bcd60e51b815260040161032490610aac565b600080546001600160a01b0319166001600160a01b0392909216919091179055565b600081815260076020526040812080549091036106245760405162461bcd60e51b8152602060048201526011602482015270111a5cdc1d5d19481b9bdd08199bdd5b99607a1b6044820152606401610324565b600181015460ff161561066c5760405162461bcd60e51b815260206004820152601060248201526f105b1c9958591e48195e1958dd5d195960821b6044820152606401610324565b60035481546040516371d8039f60e11b8152600481019190915260006024820181905291829182916001600160a01b03169063e3b0073e90604401600060405180830381865afa1580156106c4573d6000803e3d6000fd5b505050506040513d6000823e601f3d908101601f191682016040526106ec9190810190610c07565b9250925092506000836001148015610702575081155b801561072957506005548360018151811061071f5761071f610cc9565b6020026020010151145b9050806107835760405162461bcd60e51b815260206004820152602260248201527f4172626974726174696f6e206372697465726961206e6f742066756c66696c6c604482015261195960f21b6064820152608401610324565b6001858101805460ff191682179055546040516329a10dfb60e01b81526004810188905282151560248201526001600160a01b03909116906329a10dfb90604401600060405180830381600087803b1580156107de57600080fd5b505af11580156107f2573d6000803e3d6000fd5b505050507f3e1f37cf2119f398f8479ffbf7e2115c0548f79511848e3816e0994607efc2378660405161082791815260200190565b60405180910390a1505050505050565b60006020828403121561084957600080fd5b5035919050565b6000815180845260005b818110156108765760208185018101518683018201520161085a565b506000602082860101526020601f19601f83011685010191505092915050565b6020815260006108a96020830184610850565b9392505050565b634e487b7160e01b600052604160045260246000fd5b604051601f8201601f1916810167ffffffffffffffff811182821017156108ef576108ef6108b0565b604052919050565b6000602080838503121561090a57600080fd5b823567ffffffffffffffff8082111561092257600080fd5b818501915085601f83011261093657600080fd5b813581811115610948576109486108b0565b61095a601f8201601f191685016108c6565b9150808252868482850101111561097057600080fd5b8084840185840137600090820190930192909252509392505050565b60006020828403121561099e57600080fd5b81356001600160a01b03811681146108a957600080fd5b6000602082840312156109c757600080fd5b5051919050565b600181811c908216806109e257607f821691505b602082108103610a0257634e487b7160e01b600052602260045260246000fd5b50919050565b606081526000610a1b6060830186610850565b60208382038185015260008654610a31816109ce565b80855260018281168015610a4c5760018114610a6657610a94565b60ff1984168787015282151560051b870186019450610a94565b8a6000528560002060005b84811015610a8c578154898201890152908301908701610a71565b880187019550505b50505050809350505050826040830152949350505050565b6020808252601d908201527f4e6f7420617574686f72697a65643a20676f7665726e6f72206f6e6c79000000604082015260600190565b601f821115610b2d57600081815260208120601f850160051c81016020861015610b0a5750805b601f850160051c820191505b81811015610b2957828155600101610b16565b5050505b505050565b815167ffffffffffffffff811115610b4c57610b4c6108b0565b610b6081610b5a84546109ce565b84610ae3565b602080601f831160018114610b955760008415610b7d5750858301515b600019600386901b1c1916600185901b178555610b29565b600085815260208120601f198616915b82811015610bc457888601518255948401946001909101908401610ba5565b5085821015610be25787850151600019600388901b60f8161c191681555b5050505050600190811b01905550565b80518015158114610c0257600080fd5b919050565b600080600060608486031215610c1c57600080fd5b8351925060208085015167ffffffffffffffff80821115610c3c57600080fd5b818701915087601f830112610c5057600080fd5b815181811115610c6257610c626108b0565b8060051b9150610c738483016108c6565b818152918301840191848101908a841115610c8d57600080fd5b938501935b83851015610cab57845182529385019390850190610c92565b809750505050505050610cc060408501610bf2565b90509250925092565b634e487b7160e01b600052603260045260246000fdfea2646970667358221220c7b14d7d61dfb276760396148dd059eb458a8a8bb41f46158a5feba7b993568a64736f6c63430008120033","opcodes":"PUSH1 0x80 PUSH1 0x40 MSTORE CALLVALUE DUP1 ISZERO PUSH3 0x11 JUMPI PUSH1 0x0 DUP1 REVERT JUMPDEST POP PUSH1 0x40 MLOAD PUSH3 0x108B CODESIZE SUB DUP1 PUSH3 0x108B DUP4 CODECOPY DUP2 ADD PUSH1 0x40 DUP2 SWAP1 MSTORE PUSH3 0x34 SWAP2 PUSH3 0xD7 JUMP JUMPDEST PUSH1 0x0 DUP1 SLOAD PUSH1 0x1 PUSH1 0x1 PUSH1 0xA0 SHL SUB DUP1 DUP11 AND PUSH1 0x1 PUSH1 0x1 PUSH1 0xA0 SHL SUB NOT SWAP3 DUP4 AND OR SWAP1 SWAP3 SSTORE PUSH1 0x1 DUP1 SLOAD DUP10 DUP5 AND SWAP1 DUP4 AND OR SWAP1 SSTORE PUSH1 0x2 DUP1 SLOAD DUP9 DUP5 AND SWAP1 DUP4 AND OR SWAP1 SSTORE PUSH1 0x3 DUP1 SLOAD SWAP3 DUP8 AND SWAP3 SWAP1 SWAP2 AND SWAP2 SWAP1 SWAP2 OR SWAP1 SSTORE PUSH1 0x4 DUP4 SWAP1 SSTORE PUSH1 0x5 DUP3 SWAP1 SSTORE PUSH1 0x6 PUSH3 0x96 DUP3 DUP3 PUSH3 0x29A JUMP JUMPDEST POP POP POP POP POP POP POP POP PUSH3 0x366 JUMP JUMPDEST DUP1 MLOAD PUSH1 0x1 PUSH1 0x1 PUSH1 0xA0 SHL SUB DUP2 AND DUP2 EQ PUSH3 0xBC JUMPI PUSH1 0x0 DUP1 REVERT JUMPDEST SWAP2 SWAP1 POP JUMP JUMPDEST PUSH4 0x4E487B71 PUSH1 0xE0 SHL PUSH1 0x0 MSTORE PUSH1 0x41 PUSH1 0x4 MSTORE PUSH1 0x24 PUSH1 0x0 REVERT JUMPDEST PUSH1 0x0 DUP1 PUSH1 0x0 DUP1 PUSH1 0x0 DUP1 PUSH1 0x0 PUSH1 0xE0 DUP9 DUP11 SUB SLT ISZERO PUSH3 0xF3 JUMPI PUSH1 0x0 DUP1 REVERT JUMPDEST PUSH3 0xFE DUP9 PUSH3 0xA4 JUMP JUMPDEST SWAP7 POP PUSH1 0x20 PUSH3 0x10F DUP2 DUP11 ADD PUSH3 0xA4 JUMP JUMPDEST SWAP7 POP PUSH3 0x11F PUSH1 0x40 DUP11 ADD PUSH3 0xA4 JUMP JUMPDEST SWAP6 POP PUSH3 0x12F PUSH1 0x60 DUP11 ADD PUSH3 0xA4 JUMP JUMPDEST PUSH1 0x80 DUP11 ADD MLOAD PUSH1 0xA0 DUP12 ADD MLOAD PUSH1 0xC0 DUP13 ADD MLOAD SWAP3 SWAP8 POP SWAP1 SWAP6 POP SWAP4 POP PUSH1 0x1 PUSH1 0x1 PUSH1 0x40 SHL SUB DUP1 DUP3 GT ISZERO PUSH3 0x15C JUMPI PUSH1 0x0 DUP1 REVERT JUMPDEST DUP2 DUP12 ADD SWAP2 POP DUP12 PUSH1 0x1F DUP4 ADD SLT PUSH3 0x171 JUMPI PUSH1 0x0 DUP1 REVERT JUMPDEST DUP2 MLOAD DUP2 DUP2 GT ISZERO PUSH3 0x186 JUMPI PUSH3 0x186 PUSH3 0xC1 JUMP JUMPDEST PUSH1 0x40 MLOAD PUSH1 0x1F DUP3 ADD PUSH1 0x1F NOT SWAP1 DUP2 AND PUSH1 0x3F ADD AND DUP2 ADD SWAP1 DUP4 DUP3 GT DUP2 DUP4 LT OR ISZERO PUSH3 0x1B1 JUMPI PUSH3 0x1B1 PUSH3 0xC1 JUMP JUMPDEST DUP2 PUSH1 0x40 MSTORE DUP3 DUP2 MSTORE DUP15 DUP7 DUP5 DUP8 ADD ADD GT ISZERO PUSH3 0x1CA JUMPI PUSH1 0x0 DUP1 REVERT JUMPDEST PUSH1 0x0 SWAP4 POP JUMPDEST DUP3 DUP5 LT ISZERO PUSH3 0x1EE JUMPI DUP5 DUP5 ADD DUP7 ADD MLOAD DUP2 DUP6 ADD DUP8 ADD MSTORE SWAP3 DUP6 ADD SWAP3 PUSH3 0x1CF JUMP JUMPDEST PUSH1 0x0 DUP7 DUP5 DUP4 ADD ADD MSTORE DUP1 SWAP7 POP POP POP POP POP POP POP SWAP3 SWAP6 SWAP9 SWAP2 SWAP5 SWAP8 POP SWAP3 SWAP6 POP JUMP JUMPDEST PUSH1 0x1 DUP2 DUP2 SHR SWAP1 DUP3 AND DUP1 PUSH3 0x220 JUMPI PUSH1 0x7F DUP3 AND SWAP2 POP JUMPDEST PUSH1 0x20 DUP3 LT DUP2 SUB PUSH3 0x241 JUMPI PUSH4 0x4E487B71 PUSH1 0xE0 SHL PUSH1 0x0 MSTORE PUSH1 0x22 PUSH1 0x4 MSTORE PUSH1 0x24 PUSH1 0x0 REVERT JUMPDEST POP SWAP2 SWAP1 POP JUMP JUMPDEST PUSH1 0x1F DUP3 GT ISZERO PUSH3 0x295 JUMPI PUSH1 0x0 DUP2 DUP2 MSTORE PUSH1 0x20 DUP2 KECCAK256 PUSH1 0x1F DUP6 ADD PUSH1 0x5 SHR DUP2 ADD PUSH1 0x20 DUP7 LT ISZERO PUSH3 0x270 JUMPI POP DUP1 JUMPDEST PUSH1 0x1F DUP6 ADD PUSH1 0x5 SHR DUP3 ADD SWAP2 POP JUMPDEST DUP2 DUP2 LT ISZERO PUSH3 0x291 JUMPI DUP3 DUP2 SSTORE PUSH1 0x1 ADD PUSH3 0x27C JUMP JUMPDEST POP POP POP JUMPDEST POP POP POP JUMP JUMPDEST DUP2 MLOAD PUSH1 0x1 PUSH1 0x1 PUSH1 0x40 SHL SUB DUP2 GT ISZERO PUSH3 0x2B6 JUMPI PUSH3 0x2B6 PUSH3 0xC1 JUMP JUMPDEST PUSH3 0x2CE DUP2 PUSH3 0x2C7 DUP5 SLOAD PUSH3 0x20B JUMP JUMPDEST DUP5 PUSH3 0x247 JUMP JUMPDEST PUSH1 0x20 DUP1 PUSH1 0x1F DUP4 GT PUSH1 0x1 DUP2 EQ PUSH3 0x306 JUMPI PUSH1 0x0 DUP5 ISZERO PUSH3 0x2ED JUMPI POP DUP6 DUP4 ADD MLOAD JUMPDEST PUSH1 0x0 NOT PUSH1 0x3 DUP7 SWAP1 SHL SHR NOT AND PUSH1 0x1 DUP6 SWAP1 SHL OR DUP6 SSTORE PUSH3 0x291 JUMP JUMPDEST PUSH1 0x0 DUP6 DUP2 MSTORE PUSH1 0x20 DUP2 KECCAK256 PUSH1 0x1F NOT DUP7 AND SWAP2 JUMPDEST DUP3 DUP2 LT ISZERO PUSH3 0x337 JUMPI DUP9 DUP7 ADD MLOAD DUP3 SSTORE SWAP5 DUP5 ADD SWAP5 PUSH1 0x1 SWAP1 SWAP2 ADD SWAP1 DUP5 ADD PUSH3 0x316 JUMP JUMPDEST POP DUP6 DUP3 LT ISZERO PUSH3 0x356 JUMPI DUP8 DUP6 ADD MLOAD PUSH1 0x0 NOT PUSH1 0x3 DUP9 SWAP1 SHL PUSH1 0xF8 AND SHR NOT AND DUP2 SSTORE JUMPDEST POP POP POP POP POP PUSH1 0x1 SWAP1 DUP2 SHL ADD SWAP1 SSTORE POP JUMP JUMPDEST PUSH2 0xD15 DUP1 PUSH3 0x376 PUSH1 0x0 CODECOPY PUSH1 0x0 RETURN INVALID PUSH1 0x80 PUSH1 0x40 MSTORE PUSH1 0x4 CALLDATASIZE LT PUSH2 0xBD JUMPI PUSH1 0x0 CALLDATALOAD PUSH1 0xE0 SHR DUP1 PUSH4 0x936B7499 GT PUSH2 0x6F JUMPI DUP1 PUSH4 0x936B7499 EQ PUSH2 0x1BA JUMPI DUP1 PUSH4 0x9FDD0F99 EQ PUSH2 0x206 JUMPI DUP1 PUSH4 0xA1E55F8C EQ PUSH2 0x226 JUMPI DUP1 PUSH4 0xD0AB1226 EQ PUSH2 0x246 JUMPI DUP1 PUSH4 0xDC3909EA EQ PUSH2 0x266 JUMPI DUP1 PUSH4 0xE4C0AAF4 EQ PUSH2 0x27C JUMPI DUP1 PUSH4 0xF98A4ECA EQ PUSH2 0x29C JUMPI PUSH1 0x0 DUP1 REVERT JUMPDEST DUP1 PUSH4 0x58431EB EQ PUSH2 0xC2 JUMPI DUP1 PUSH4 0xC340A24 EQ PUSH2 0xEB JUMPI DUP1 PUSH4 0x31402A57 EQ PUSH2 0x123 JUMPI DUP1 PUSH4 0x54C725F1 EQ PUSH2 0x138 JUMPI DUP1 PUSH4 0x55538AC5 EQ PUSH2 0x158 JUMPI DUP1 PUSH4 0x65319D06 EQ PUSH2 0x17A JUMPI DUP1 PUSH4 0x6BB6CD86 EQ PUSH2 0x19A JUMPI JUMPDEST PUSH1 0x0 DUP1 REVERT JUMPDEST CALLVALUE DUP1 ISZERO PUSH2 0xCE JUMPI PUSH1 0x0 DUP1 REVERT JUMPDEST POP PUSH2 0xD8 PUSH1 0x4 SLOAD DUP2 JUMP JUMPDEST PUSH1 0x40 MLOAD SWAP1 DUP2 MSTORE PUSH1 0x20 ADD JUMPDEST PUSH1 0x40 MLOAD DUP1 SWAP2 SUB SWAP1 RETURN JUMPDEST CALLVALUE DUP1 ISZERO PUSH2 0xF7 JUMPI PUSH1 0x0 DUP1 REVERT JUMPDEST POP PUSH1 0x0 SLOAD PUSH2 0x10B SWAP1 PUSH1 0x1 PUSH1 0x1 PUSH1 0xA0 SHL SUB AND DUP2 JUMP JUMPDEST PUSH1 0x40 MLOAD PUSH1 0x1 PUSH1 0x1 PUSH1 0xA0 SHL SUB SWAP1 SWAP2 AND DUP2 MSTORE PUSH1 0x20 ADD PUSH2 0xE2 JUMP JUMPDEST PUSH2 0x136 PUSH2 0x131 CALLDATASIZE PUSH1 0x4 PUSH2 0x837 JUMP JUMPDEST PUSH2 0x2BC JUMP JUMPDEST STOP JUMPDEST CALLVALUE DUP1 ISZERO PUSH2 0x144 JUMPI PUSH1 0x0 DUP1 REVERT JUMPDEST POP PUSH2 0x136 PUSH2 0x153 CALLDATASIZE PUSH1 0x4 PUSH2 0x837 JUMP JUMPDEST PUSH2 0x45F JUMP JUMPDEST CALLVALUE DUP1 ISZERO PUSH2 0x164 JUMPI PUSH1 0x0 DUP1 REVERT JUMPDEST POP PUSH2 0x16D PUSH2 0x48E JUMP JUMPDEST PUSH1 0x40 MLOAD PUSH2 0xE2 SWAP2 SWAP1 PUSH2 0x896 JUMP JUMPDEST CALLVALUE DUP1 ISZERO PUSH2 0x186 JUMPI PUSH1 0x0 DUP1 REVERT JUMPDEST POP PUSH2 0x136 PUSH2 0x195 CALLDATASIZE PUSH1 0x4 PUSH2 0x837 JUMP JUMPDEST PUSH2 0x51C JUMP JUMPDEST CALLVALUE DUP1 ISZERO PUSH2 0x1A6 JUMPI PUSH1 0x0 DUP1 REVERT JUMPDEST POP PUSH1 0x3 SLOAD PUSH2 0x10B SWAP1 PUSH1 0x1 PUSH1 0x1 PUSH1 0xA0 SHL SUB AND DUP2 JUMP JUMPDEST CALLVALUE DUP1 ISZERO PUSH2 0x1C6 JUMPI PUSH1 0x0 DUP1 REVERT JUMPDEST POP PUSH2 0x1F1 PUSH2 0x1D5 CALLDATASIZE PUSH1 0x4 PUSH2 0x837 JUMP JUMPDEST PUSH1 0x7 PUSH1 0x20 MSTORE PUSH1 0x0 SWAP1 DUP2 MSTORE PUSH1 0x40 SWAP1 KECCAK256 DUP1 SLOAD PUSH1 0x1 SWAP1 SWAP2 ADD SLOAD PUSH1 0xFF AND DUP3 JUMP JUMPDEST PUSH1 0x40 DUP1 MLOAD SWAP3 DUP4 MSTORE SWAP1 ISZERO ISZERO PUSH1 0x20 DUP4 ADD MSTORE ADD PUSH2 0xE2 JUMP JUMPDEST CALLVALUE DUP1 ISZERO PUSH2 0x212 JUMPI PUSH1 0x0 DUP1 REVERT JUMPDEST POP PUSH1 0x2 SLOAD PUSH2 0x10B SWAP1 PUSH1 0x1 PUSH1 0x1 PUSH1 0xA0 SHL SUB AND DUP2 JUMP JUMPDEST CALLVALUE DUP1 ISZERO PUSH2 0x232 JUMPI PUSH1 0x0 DUP1 REVERT JUMPDEST POP PUSH2 0x136 PUSH2 0x241 CALLDATASIZE PUSH1 0x4 PUSH2 0x8F7 JUMP JUMPDEST PUSH2 0x54B JUMP JUMPDEST CALLVALUE DUP1 ISZERO PUSH2 0x252 JUMPI PUSH1 0x0 DUP1 REVERT JUMPDEST POP PUSH1 0x1 SLOAD PUSH2 0x10B SWAP1 PUSH1 0x1 PUSH1 0x1 PUSH1 0xA0 SHL SUB AND DUP2 JUMP JUMPDEST CALLVALUE DUP1 ISZERO PUSH2 0x272 JUMPI PUSH1 0x0 DUP1 REVERT JUMPDEST POP PUSH2 0xD8 PUSH1 0x5 SLOAD DUP2 JUMP JUMPDEST CALLVALUE DUP1 ISZERO PUSH2 0x288 JUMPI PUSH1 0x0 DUP1 REVERT JUMPDEST POP PUSH2 0x136 PUSH2 0x297 CALLDATASIZE PUSH1 0x4 PUSH2 0x98C JUMP JUMPDEST PUSH2 0x585 JUMP JUMPDEST CALLVALUE DUP1 ISZERO PUSH2 0x2A8 JUMPI PUSH1 0x0 DUP1 REVERT JUMPDEST POP PUSH2 0x136 PUSH2 0x2B7 CALLDATASIZE PUSH1 0x4 PUSH2 0x837 JUMP JUMPDEST PUSH2 0x5D1 JUMP JUMPDEST PUSH1 0x0 DUP2 DUP2 MSTORE PUSH1 0x7 PUSH1 0x20 MSTORE PUSH1 0x40 SWAP1 KECCAK256 SLOAD ISZERO PUSH2 0x32D JUMPI PUSH1 0x40 MLOAD PUSH3 0x461BCD PUSH1 0xE5 SHL DUP2 MSTORE PUSH1 0x20 PUSH1 0x4 DUP3 ADD MSTORE PUSH1 0x27 PUSH1 0x24 DUP3 ADD MSTORE PUSH32 0x4469737075746520616C7265616479206372656174656420666F722074686973 PUSH1 0x44 DUP3 ADD MSTORE PUSH7 0x81C995C1BDC9D PUSH1 0xCA SHL PUSH1 0x64 DUP3 ADD MSTORE PUSH1 0x84 ADD JUMPDEST PUSH1 0x40 MLOAD DUP1 SWAP2 SUB SWAP1 REVERT JUMPDEST PUSH1 0x4 SLOAD PUSH1 0x5 SLOAD PUSH1 0x40 DUP1 MLOAD PUSH1 0x20 DUP2 ADD SWAP4 SWAP1 SWAP4 MSTORE DUP3 DUP2 ADD SWAP2 SWAP1 SWAP2 MSTORE DUP1 MLOAD DUP1 DUP4 SUB DUP3 ADD DUP2 MSTORE PUSH1 0x60 DUP4 ADD SWAP2 DUP3 SWAP1 MSTORE PUSH1 0x3 SLOAD PUSH4 0xF7434EA9 PUSH1 0xE0 SHL SWAP1 SWAP3 MSTORE SWAP2 PUSH1 0x0 SWAP2 PUSH1 0x1 PUSH1 0x1 PUSH1 0xA0 SHL SUB AND SWAP1 PUSH4 0xF7434EA9 SWAP1 PUSH2 0x387 SWAP1 DUP6 SWAP1 PUSH1 0x64 ADD PUSH2 0x896 JUMP JUMPDEST PUSH1 0x20 PUSH1 0x40 MLOAD DUP1 DUP4 SUB DUP2 DUP7 GAS STATICCALL ISZERO DUP1 ISZERO PUSH2 0x3A4 JUMPI RETURNDATASIZE PUSH1 0x0 DUP1 RETURNDATACOPY RETURNDATASIZE PUSH1 0x0 REVERT JUMPDEST POP POP POP POP PUSH1 0x40 MLOAD RETURNDATASIZE PUSH1 0x1F NOT PUSH1 0x1F DUP3 ADD AND DUP3 ADD DUP1 PUSH1 0x40 MSTORE POP DUP2 ADD SWAP1 PUSH2 0x3C8 SWAP2 SWAP1 PUSH2 0x9B5 JUMP JUMPDEST PUSH1 0x2 DUP1 SLOAD PUSH1 0x40 MLOAD PUSH4 0xE2C7981B PUSH1 0xE0 SHL DUP2 MSTORE SWAP3 SWAP4 POP PUSH1 0x0 SWAP3 PUSH1 0x1 PUSH1 0x1 PUSH1 0xA0 SHL SUB SWAP1 SWAP2 AND SWAP2 PUSH4 0xE2C7981B SWAP2 CALLVALUE SWAP2 PUSH2 0x404 SWAP2 DUP9 SWAP2 PUSH1 0x6 SWAP2 PUSH1 0x4 ADD PUSH2 0xA08 JUMP JUMPDEST PUSH1 0x20 PUSH1 0x40 MLOAD DUP1 DUP4 SUB DUP2 DUP6 DUP9 GAS CALL ISZERO DUP1 ISZERO PUSH2 0x422 JUMPI RETURNDATASIZE PUSH1 0x0 DUP1 RETURNDATACOPY RETURNDATASIZE PUSH1 0x0 REVERT JUMPDEST POP POP POP POP POP PUSH1 0x40 MLOAD RETURNDATASIZE PUSH1 0x1F NOT PUSH1 0x1F DUP3 ADD AND DUP3 ADD DUP1 PUSH1 0x40 MSTORE POP DUP2 ADD SWAP1 PUSH2 0x447 SWAP2 SWAP1 PUSH2 0x9B5 JUMP JUMPDEST PUSH1 0x0 SWAP5 DUP6 MSTORE PUSH1 0x7 PUSH1 0x20 MSTORE PUSH1 0x40 SWAP1 SWAP5 KECCAK256 SWAP4 SWAP1 SWAP4 SSTORE POP POP POP JUMP JUMPDEST PUSH1 0x0 SLOAD PUSH1 0x1 PUSH1 0x1 PUSH1 0xA0 SHL SUB AND CALLER EQ PUSH2 0x489 JUMPI PUSH1 0x40 MLOAD PUSH3 0x461BCD PUSH1 0xE5 SHL DUP2 MSTORE PUSH1 0x4 ADD PUSH2 0x324 SWAP1 PUSH2 0xAAC JUMP JUMPDEST PUSH1 0x5 SSTORE JUMP JUMPDEST PUSH1 0x6 DUP1 SLOAD PUSH2 0x49B SWAP1 PUSH2 0x9CE JUMP JUMPDEST DUP1 PUSH1 0x1F ADD PUSH1 0x20 DUP1 SWAP2 DIV MUL PUSH1 0x20 ADD PUSH1 0x40 MLOAD SWAP1 DUP2 ADD PUSH1 0x40 MSTORE DUP1 SWAP3 SWAP2 SWAP1 DUP2 DUP2 MSTORE PUSH1 0x20 ADD DUP3 DUP1 SLOAD PUSH2 0x4C7 SWAP1 PUSH2 0x9CE JUMP JUMPDEST DUP1 ISZERO PUSH2 0x514 JUMPI DUP1 PUSH1 0x1F LT PUSH2 0x4E9 JUMPI PUSH2 0x100 DUP1 DUP4 SLOAD DIV MUL DUP4 MSTORE SWAP2 PUSH1 0x20 ADD SWAP2 PUSH2 0x514 JUMP JUMPDEST DUP3 ADD SWAP2 SWAP1 PUSH1 0x0 MSTORE PUSH1 0x20 PUSH1 0x0 KECCAK256 SWAP1 JUMPDEST DUP2 SLOAD DUP2 MSTORE SWAP1 PUSH1 0x1 ADD SWAP1 PUSH1 0x20 ADD DUP1 DUP4 GT PUSH2 0x4F7 JUMPI DUP3 SWAP1 SUB PUSH1 0x1F AND DUP3 ADD SWAP2 JUMPDEST POP POP POP POP POP DUP2 JUMP JUMPDEST PUSH1 0x0 SLOAD PUSH1 0x1 PUSH1 0x1 PUSH1 0xA0 SHL SUB AND CALLER EQ PUSH2 0x546 JUMPI PUSH1 0x40 MLOAD PUSH3 0x461BCD PUSH1 0xE5 SHL DUP2 MSTORE PUSH1 0x4 ADD PUSH2 0x324 SWAP1 PUSH2 0xAAC JUMP JUMPDEST PUSH1 0x4 SSTORE JUMP JUMPDEST PUSH1 0x0 SLOAD PUSH1 0x1 PUSH1 0x1 PUSH1 0xA0 SHL SUB AND CALLER EQ PUSH2 0x575 JUMPI PUSH1 0x40 MLOAD PUSH3 0x461BCD PUSH1 0xE5 SHL DUP2 MSTORE PUSH1 0x4 ADD PUSH2 0x324 SWAP1 PUSH2 0xAAC JUMP JUMPDEST PUSH1 0x6 PUSH2 0x581 DUP3 DUP3 PUSH2 0xB32 JUMP JUMPDEST POP POP JUMP JUMPDEST PUSH1 0x0 SLOAD PUSH1 0x1 PUSH1 0x1 PUSH1 0xA0 SHL SUB AND CALLER EQ PUSH2 0x5AF JUMPI PUSH1 0x40 MLOAD PUSH3 0x461BCD PUSH1 0xE5 SHL DUP2 MSTORE PUSH1 0x4 ADD PUSH2 0x324 SWAP1 PUSH2 0xAAC JUMP JUMPDEST PUSH1 0x0 DUP1 SLOAD PUSH1 0x1 PUSH1 0x1 PUSH1 0xA0 SHL SUB NOT AND PUSH1 0x1 PUSH1 0x1 PUSH1 0xA0 SHL SUB SWAP3 SWAP1 SWAP3 AND SWAP2 SWAP1 SWAP2 OR SWAP1 SSTORE JUMP JUMPDEST PUSH1 0x0 DUP2 DUP2 MSTORE PUSH1 0x7 PUSH1 0x20 MSTORE PUSH1 0x40 DUP2 KECCAK256 DUP1 SLOAD SWAP1 SWAP2 SUB PUSH2 0x624 JUMPI PUSH1 0x40 MLOAD PUSH3 0x461BCD PUSH1 0xE5 SHL DUP2 MSTORE PUSH1 0x20 PUSH1 0x4 DUP3 ADD MSTORE PUSH1 0x11 PUSH1 0x24 DUP3 ADD MSTORE PUSH17 0x111A5CDC1D5D19481B9BDD08199BDD5B99 PUSH1 0x7A SHL PUSH1 0x44 DUP3 ADD MSTORE PUSH1 0x64 ADD PUSH2 0x324 JUMP JUMPDEST PUSH1 0x1 DUP2 ADD SLOAD PUSH1 0xFF AND ISZERO PUSH2 0x66C JUMPI PUSH1 0x40 MLOAD PUSH3 0x461BCD PUSH1 0xE5 SHL DUP2 MSTORE PUSH1 0x20 PUSH1 0x4 DUP3 ADD MSTORE PUSH1 0x10 PUSH1 0x24 DUP3 ADD MSTORE PUSH16 0x105B1C9958591E48195E1958DD5D1959 PUSH1 0x82 SHL PUSH1 0x44 DUP3 ADD MSTORE PUSH1 0x64 ADD PUSH2 0x324 JUMP JUMPDEST PUSH1 0x3 SLOAD DUP2 SLOAD PUSH1 0x40 MLOAD PUSH4 0x71D8039F PUSH1 0xE1 SHL DUP2 MSTORE PUSH1 0x4 DUP2 ADD SWAP2 SWAP1 SWAP2 MSTORE PUSH1 0x0 PUSH1 0x24 DUP3 ADD DUP2 SWAP1 MSTORE SWAP2 DUP3 SWAP2 DUP3 SWAP2 PUSH1 0x1 PUSH1 0x1 PUSH1 0xA0 SHL SUB AND SWAP1 PUSH4 0xE3B0073E SWAP1 PUSH1 0x44 ADD PUSH1 0x0 PUSH1 0x40 MLOAD DUP1 DUP4 SUB DUP2 DUP7 GAS STATICCALL ISZERO DUP1 ISZERO PUSH2 0x6C4 JUMPI RETURNDATASIZE PUSH1 0x0 DUP1 RETURNDATACOPY RETURNDATASIZE PUSH1 0x0 REVERT JUMPDEST POP POP POP POP PUSH1 0x40 MLOAD RETURNDATASIZE PUSH1 0x0 DUP3 RETURNDATACOPY PUSH1 0x1F RETURNDATASIZE SWAP1 DUP2 ADD PUSH1 0x1F NOT AND DUP3 ADD PUSH1 0x40 MSTORE PUSH2 0x6EC SWAP2 SWAP1 DUP2 ADD SWAP1 PUSH2 0xC07 JUMP JUMPDEST SWAP3 POP SWAP3 POP SWAP3 POP PUSH1 0x0 DUP4 PUSH1 0x1 EQ DUP1 ISZERO PUSH2 0x702 JUMPI POP DUP2 ISZERO JUMPDEST DUP1 ISZERO PUSH2 0x729 JUMPI POP PUSH1 0x5 SLOAD DUP4 PUSH1 0x1 DUP2 MLOAD DUP2 LT PUSH2 0x71F JUMPI PUSH2 0x71F PUSH2 0xCC9 JUMP JUMPDEST PUSH1 0x20 MUL PUSH1 0x20 ADD ADD MLOAD EQ JUMPDEST SWAP1 POP DUP1 PUSH2 0x783 JUMPI PUSH1 0x40 MLOAD PUSH3 0x461BCD PUSH1 0xE5 SHL DUP2 MSTORE PUSH1 0x20 PUSH1 0x4 DUP3 ADD MSTORE PUSH1 0x22 PUSH1 0x24 DUP3 ADD MSTORE PUSH32 0x4172626974726174696F6E206372697465726961206E6F742066756C66696C6C PUSH1 0x44 DUP3 ADD MSTORE PUSH2 0x1959 PUSH1 0xF2 SHL PUSH1 0x64 DUP3 ADD MSTORE PUSH1 0x84 ADD PUSH2 0x324 JUMP JUMPDEST PUSH1 0x1 DUP6 DUP2 ADD DUP1 SLOAD PUSH1 0xFF NOT AND DUP3 OR SWAP1 SSTORE SLOAD PUSH1 0x40 MLOAD PUSH4 0x29A10DFB PUSH1 0xE0 SHL DUP2 MSTORE PUSH1 0x4 DUP2 ADD DUP9 SWAP1 MSTORE DUP3 ISZERO ISZERO PUSH1 0x24 DUP3 ADD MSTORE PUSH1 0x1 PUSH1 0x1 PUSH1 0xA0 SHL SUB SWAP1 SWAP2 AND SWAP1 PUSH4 0x29A10DFB SWAP1 PUSH1 0x44 ADD PUSH1 0x0 PUSH1 0x40 MLOAD DUP1 DUP4 SUB DUP2 PUSH1 0x0 DUP8 DUP1 EXTCODESIZE ISZERO DUP1 ISZERO PUSH2 0x7DE JUMPI PUSH1 0x0 DUP1 REVERT JUMPDEST POP GAS CALL ISZERO DUP1 ISZERO PUSH2 0x7F2 JUMPI RETURNDATASIZE PUSH1 0x0 DUP1 RETURNDATACOPY RETURNDATASIZE PUSH1 0x0 REVERT JUMPDEST POP POP POP POP PUSH32 0x3E1F37CF2119F398F8479FFBF7E2115C0548F79511848E3816E0994607EFC237 DUP7 PUSH1 0x40 MLOAD PUSH2 0x827 SWAP2 DUP2 MSTORE PUSH1 0x20 ADD SWAP1 JUMP JUMPDEST PUSH1 0x40 MLOAD DUP1 SWAP2 SUB SWAP1 LOG1 POP POP POP POP POP POP JUMP JUMPDEST PUSH1 0x0 PUSH1 0x20 DUP3 DUP5 SUB SLT ISZERO PUSH2 0x849 JUMPI PUSH1 0x0 DUP1 REVERT JUMPDEST POP CALLDATALOAD SWAP2 SWAP1 POP JUMP JUMPDEST PUSH1 0x0 DUP2 MLOAD DUP1 DUP5 MSTORE PUSH1 0x0 JUMPDEST DUP2 DUP2 LT ISZERO PUSH2 0x876 JUMPI PUSH1 0x20 DUP2 DUP6 ADD DUP2 ADD MLOAD DUP7 DUP4 ADD DUP3 ADD MSTORE ADD PUSH2 0x85A JUMP JUMPDEST POP PUSH1 0x0 PUSH1 0x20 DUP3 DUP7 ADD ADD MSTORE PUSH1 0x20 PUSH1 0x1F NOT PUSH1 0x1F DUP4 ADD AND DUP6 ADD ADD SWAP2 POP POP SWAP3 SWAP2 POP POP JUMP JUMPDEST PUSH1 0x20 DUP2 MSTORE PUSH1 0x0 PUSH2 0x8A9 PUSH1 0x20 DUP4 ADD DUP5 PUSH2 0x850 JUMP JUMPDEST SWAP4 SWAP3 POP POP POP JUMP JUMPDEST PUSH4 0x4E487B71 PUSH1 0xE0 SHL PUSH1 0x0 MSTORE PUSH1 0x41 PUSH1 0x4 MSTORE PUSH1 0x24 PUSH1 0x0 REVERT JUMPDEST PUSH1 0x40 MLOAD PUSH1 0x1F DUP3 ADD PUSH1 0x1F NOT AND DUP2 ADD PUSH8 0xFFFFFFFFFFFFFFFF DUP2 GT DUP3 DUP3 LT OR ISZERO PUSH2 0x8EF JUMPI PUSH2 0x8EF PUSH2 0x8B0 JUMP JUMPDEST PUSH1 0x40 MSTORE SWAP2 SWAP1 POP JUMP JUMPDEST PUSH1 0x0 PUSH1 0x20 DUP1 DUP4 DUP6 SUB SLT ISZERO PUSH2 0x90A JUMPI PUSH1 0x0 DUP1 REVERT JUMPDEST DUP3 CALLDATALOAD PUSH8 0xFFFFFFFFFFFFFFFF DUP1 DUP3 GT ISZERO PUSH2 0x922 JUMPI PUSH1 0x0 DUP1 REVERT JUMPDEST DUP2 DUP6 ADD SWAP2 POP DUP6 PUSH1 0x1F DUP4 ADD SLT PUSH2 0x936 JUMPI PUSH1 0x0 DUP1 REVERT JUMPDEST DUP2 CALLDATALOAD DUP2 DUP2 GT ISZERO PUSH2 0x948 JUMPI PUSH2 0x948 PUSH2 0x8B0 JUMP JUMPDEST PUSH2 0x95A PUSH1 0x1F DUP3 ADD PUSH1 0x1F NOT AND DUP6 ADD PUSH2 0x8C6 JUMP JUMPDEST SWAP2 POP DUP1 DUP3 MSTORE DUP7 DUP5 DUP3 DUP6 ADD ADD GT ISZERO PUSH2 0x970 JUMPI PUSH1 0x0 DUP1 REVERT JUMPDEST DUP1 DUP5 DUP5 ADD DUP6 DUP5 ADD CALLDATACOPY PUSH1 0x0 SWAP1 DUP3 ADD SWAP1 SWAP4 ADD SWAP3 SWAP1 SWAP3 MSTORE POP SWAP4 SWAP3 POP POP POP JUMP JUMPDEST PUSH1 0x0 PUSH1 0x20 DUP3 DUP5 SUB SLT ISZERO PUSH2 0x99E JUMPI PUSH1 0x0 DUP1 REVERT JUMPDEST DUP2 CALLDATALOAD PUSH1 0x1 PUSH1 0x1 PUSH1 0xA0 SHL SUB DUP2 AND DUP2 EQ PUSH2 0x8A9 JUMPI PUSH1 0x0 DUP1 REVERT JUMPDEST PUSH1 0x0 PUSH1 0x20 DUP3 DUP5 SUB SLT ISZERO PUSH2 0x9C7 JUMPI PUSH1 0x0 DUP1 REVERT JUMPDEST POP MLOAD SWAP2 SWAP1 POP JUMP JUMPDEST PUSH1 0x1 DUP2 DUP2 SHR SWAP1 DUP3 AND DUP1 PUSH2 0x9E2 JUMPI PUSH1 0x7F DUP3 AND SWAP2 POP JUMPDEST PUSH1 0x20 DUP3 LT DUP2 SUB PUSH2 0xA02 JUMPI PUSH4 0x4E487B71 PUSH1 0xE0 SHL PUSH1 0x0 MSTORE PUSH1 0x22 PUSH1 0x4 MSTORE PUSH1 0x24 PUSH1 0x0 REVERT JUMPDEST POP SWAP2 SWAP1 POP JUMP JUMPDEST PUSH1 0x60 DUP2 MSTORE PUSH1 0x0 PUSH2 0xA1B PUSH1 0x60 DUP4 ADD DUP7 PUSH2 0x850 JUMP JUMPDEST PUSH1 0x20 DUP4 DUP3 SUB DUP2 DUP6 ADD MSTORE PUSH1 0x0 DUP7 SLOAD PUSH2 0xA31 DUP2 PUSH2 0x9CE JUMP JUMPDEST DUP1 DUP6 MSTORE PUSH1 0x1 DUP3 DUP2 AND DUP1 ISZERO PUSH2 0xA4C JUMPI PUSH1 0x1 DUP2 EQ PUSH2 0xA66 JUMPI PUSH2 0xA94 JUMP JUMPDEST PUSH1 0xFF NOT DUP5 AND DUP8 DUP8 ADD MSTORE DUP3 ISZERO ISZERO PUSH1 0x5 SHL DUP8 ADD DUP7 ADD SWAP5 POP PUSH2 0xA94 JUMP JUMPDEST DUP11 PUSH1 0x0 MSTORE DUP6 PUSH1 0x0 KECCAK256 PUSH1 0x0 JUMPDEST DUP5 DUP2 LT ISZERO PUSH2 0xA8C JUMPI DUP2 SLOAD DUP10 DUP3 ADD DUP10 ADD MSTORE SWAP1 DUP4 ADD SWAP1 DUP8 ADD PUSH2 0xA71 JUMP JUMPDEST DUP9 ADD DUP8 ADD SWAP6 POP POP JUMPDEST POP POP POP POP DUP1 SWAP4 POP POP POP POP DUP3 PUSH1 0x40 DUP4 ADD MSTORE SWAP5 SWAP4 POP POP POP POP JUMP JUMPDEST PUSH1 0x20 DUP1 DUP3 MSTORE PUSH1 0x1D SWAP1 DUP3 ADD MSTORE PUSH32 0x4E6F7420617574686F72697A65643A20676F7665726E6F72206F6E6C79000000 PUSH1 0x40 DUP3 ADD MSTORE PUSH1 0x60 ADD SWAP1 JUMP JUMPDEST PUSH1 0x1F DUP3 GT ISZERO PUSH2 0xB2D JUMPI PUSH1 0x0 DUP2 DUP2 MSTORE PUSH1 0x20 DUP2 KECCAK256 PUSH1 0x1F DUP6 ADD PUSH1 0x5 SHR DUP2 ADD PUSH1 0x20 DUP7 LT ISZERO PUSH2 0xB0A JUMPI POP DUP1 JUMPDEST PUSH1 0x1F DUP6 ADD PUSH1 0x5 SHR DUP3 ADD SWAP2 POP JUMPDEST DUP2 DUP2 LT ISZERO PUSH2 0xB29 JUMPI DUP3 DUP2 SSTORE PUSH1 0x1 ADD PUSH2 0xB16 JUMP JUMPDEST POP POP POP JUMPDEST POP POP POP JUMP JUMPDEST DUP2 MLOAD PUSH8 0xFFFFFFFFFFFFFFFF DUP2 GT ISZERO PUSH2 0xB4C JUMPI PUSH2 0xB4C PUSH2 0x8B0 JUMP JUMPDEST PUSH2 0xB60 DUP2 PUSH2 0xB5A DUP5 SLOAD PUSH2 0x9CE JUMP JUMPDEST DUP5 PUSH2 0xAE3 JUMP JUMPDEST PUSH1 0x20 DUP1 PUSH1 0x1F DUP4 GT PUSH1 0x1 DUP2 EQ PUSH2 0xB95 JUMPI PUSH1 0x0 DUP5 ISZERO PUSH2 0xB7D JUMPI POP DUP6 DUP4 ADD MLOAD JUMPDEST PUSH1 0x0 NOT PUSH1 0x3 DUP7 SWAP1 SHL SHR NOT AND PUSH1 0x1 DUP6 SWAP1 SHL OR DUP6 SSTORE PUSH2 0xB29 JUMP JUMPDEST PUSH1 0x0 DUP6 DUP2 MSTORE PUSH1 0x20 DUP2 KECCAK256 PUSH1 0x1F NOT DUP7 AND SWAP2 JUMPDEST DUP3 DUP2 LT ISZERO PUSH2 0xBC4 JUMPI DUP9 DUP7 ADD MLOAD DUP3 SSTORE SWAP5 DUP5 ADD SWAP5 PUSH1 0x1 SWAP1 SWAP2 ADD SWAP1 DUP5 ADD PUSH2 0xBA5 JUMP JUMPDEST POP DUP6 DUP3 LT ISZERO PUSH2 0xBE2 JUMPI DUP8 DUP6 ADD MLOAD PUSH1 0x0 NOT PUSH1 0x3 DUP9 SWAP1 SHL PUSH1 0xF8 AND SHR NOT AND DUP2 SSTORE JUMPDEST POP POP POP POP POP PUSH1 0x1 SWAP1 DUP2 SHL ADD SWAP1 SSTORE POP JUMP JUMPDEST DUP1 MLOAD DUP1 ISZERO ISZERO DUP2 EQ PUSH2 0xC02 JUMPI PUSH1 0x0 DUP1 REVERT JUMPDEST SWAP2 SWAP1 POP JUMP JUMPDEST PUSH1 0x0 DUP1 PUSH1 0x0 PUSH1 0x60 DUP5 DUP7 SUB SLT ISZERO PUSH2 0xC1C JUMPI PUSH1 0x0 DUP1 REVERT JUMPDEST DUP4 MLOAD SWAP3 POP PUSH1 0x20 DUP1 DUP6 ADD MLOAD PUSH8 0xFFFFFFFFFFFFFFFF DUP1 DUP3 GT ISZERO PUSH2 0xC3C JUMPI PUSH1 0x0 DUP1 REVERT JUMPDEST DUP2 DUP8 ADD SWAP2 POP DUP8 PUSH1 0x1F DUP4 ADD SLT PUSH2 0xC50 JUMPI PUSH1 0x0 DUP1 REVERT JUMPDEST DUP2 MLOAD DUP2 DUP2 GT ISZERO PUSH2 0xC62 JUMPI PUSH2 0xC62 PUSH2 0x8B0 JUMP JUMPDEST DUP1 PUSH1 0x5 SHL SWAP2 POP PUSH2 0xC73 DUP5 DUP4 ADD PUSH2 0x8C6 JUMP JUMPDEST DUP2 DUP2 MSTORE SWAP2 DUP4 ADD DUP5 ADD SWAP2 DUP5 DUP2 ADD SWAP1 DUP11 DUP5 GT ISZERO PUSH2 0xC8D JUMPI PUSH1 0x0 DUP1 REVERT JUMPDEST SWAP4 DUP6 ADD SWAP4 JUMPDEST DUP4 DUP6 LT ISZERO PUSH2 0xCAB JUMPI DUP5 MLOAD DUP3 MSTORE SWAP4 DUP6 ADD SWAP4 SWAP1 DUP6 ADD SWAP1 PUSH2 0xC92 JUMP JUMPDEST DUP1 SWAP8 POP POP POP POP POP POP POP PUSH2 0xCC0 PUSH1 0x40 DUP6 ADD PUSH2 0xBF2 JUMP JUMPDEST SWAP1 POP SWAP3 POP SWAP3 POP SWAP3 JUMP JUMPDEST PUSH4 0x4E487B71 PUSH1 0xE0 SHL PUSH1 0x0 MSTORE PUSH1 0x32 PUSH1 0x4 MSTORE PUSH1 0x24 PUSH1 0x0 REVERT INVALID LOG2 PUSH5 0x6970667358 0x22 SLT KECCAK256 0xC7 0xB1 0x4D PUSH30 0x61DFB276760396148DD059EB458A8A8BB41F46158A5FEBA7B993568A6473 PUSH16 0x6C634300081200330000000000000000 "},"methodIdentifiers":{"arbitrableProxy()":"9fdd0f99","changeCourtID(uint256)":"65319d06","changeGovernor(address)":"e4c0aaf4","changeMetaevidenceURI(string)":"a1e55f8c","changeNumberOfJurors(uint256)":"54c725f1","courtID()":"058431eb","executeVote(uint256)":"f98a4eca","governor()":"0c340a24","klerosLiquid()":"6bb6cd86","losslessGovernance()":"d0ab1226","metaevidenceURI()":"55538ac5","numberOfJurors()":"dc3909ea","reportIDToDispute(uint256)":"936b7499","requestArbitration(uint256)":"31402a57"}},"userdoc":{"kind":"user","methods":{},"version":1}}}}