{
  "_format": "hh-sol-artifact-1",
  "contractName": "LosslessKlerosProxy",
  "sourceName": "src/LosslessKlerosProxy.sol",
  "abi": [
    {
      "inputs": [
        {
          "internalType": "address",
          "name": "_governor",
          "type": "address"
        },
        {
          "internalType": "address",
          "name": "_losslessGovernance",
          "type": "address"
        },
        {
          "internalType": "address",
          "name": "_arbitrableProxy",
          "type": "address"
        },
        {
          "internalType": "address",
          "name": "_klerosLiquid",
          "type": "address"
        },
        {
          "internalType": "uint256",
          "name": "_courtID",
          "type": "uint256"
        },
        {
          "internalType": "uint256",
          "name": "_numberOfJurors",
          "type": "uint256"
        },
        {
          "internalType": "string",
          "name": "_metaevidenceURI",
          "type": "string"
        }
      ],
      "stateMutability": "nonpayable",
      "type": "constructor"
    },
    {
      "anonymous": false,
      "inputs": [
        {
          "indexed": false,
          "internalType": "uint256",
          "name": "_reportID",
          "type": "uint256"
        }
      ],
      "name": "ArbitrationExecution",
      "type": "event"
    },
    {
      "inputs": [],
      "name": "arbitrableProxy",
      "outputs": [
        {
          "internalType": "contract IArbitrableProxy",
          "name": "",
          "type": "address"
        }
      ],
      "stateMutability": "view",
      "type": "function"
    },
    {
      "inputs": [
        {
          "internalType": "uint256",
          "name": "_courtID",
          "type": "uint256"
        }
      ],
      "name": "changeCourtID",
      "outputs": [],
      "stateMutability": "nonpayable",
      "type": "function"
    },
    {
      "inputs": [
        {
          "internalType": "address",
          "name": "_newGovernor",
          "type": "address"
        }
      ],
      "name": "changeGovernor",
      "outputs": [],
      "stateMutability": "nonpayable",
      "type": "function"
    },
    {
      "inputs": [
        {
          "internalType": "string",
          "name": "_metaevidenceURI",
          "type": "string"
        }
      ],
      "name": "changeMetaevidenceURI",
      "outputs": [],
      "stateMutability": "nonpayable",
      "type": "function"
    },
    {
      "inputs": [
        {
          "internalType": "uint256",
          "name": "_numberOfJurors",
          "type": "uint256"
        }
      ],
      "name": "changeNumberOfJurors",
      "outputs": [],
      "stateMutability": "nonpayable",
      "type": "function"
    },
    {
      "inputs": [],
      "name": "courtID",
      "outputs": [
        {
          "internalType": "uint256",
          "name": "",
          "type": "uint256"
        }
      ],
      "stateMutability": "view",
      "type": "function"
    },
    {
      "inputs": [
        {
          "internalType": "uint256",
          "name": "_reportID",
          "type": "uint256"
        }
      ],
      "name": "executeVote",
      "outputs": [],
      "stateMutability": "nonpayable",
      "type": "function"
    },
    {
      "inputs": [],
      "name": "governor",
      "outputs": [
        {
          "internalType": "address",
          "name": "",
          "type": "address"
        }
      ],
      "stateMutability": "view",
      "type": "function"
    },
    {
      "inputs": [],
      "name": "klerosLiquid",
      "outputs": [
        {
          "internalType": "contract IKlerosLiquid",
          "name": "",
          "type": "address"
        }
      ],
      "stateMutability": "view",
      "type": "function"
    },
    {
      "inputs": [],
      "name": "losslessGovernance",
      "outputs": [
        {
          "internalType": "contract ILosslessGovernance",
          "name": "",
          "type": "address"
        }
      ],
      "stateMutability": "view",
      "type": "function"
    },
    {
      "inputs": [],
      "name": "metaevidenceURI",
      "outputs": [
        {
          "internalType": "string",
          "name": "",
          "type": "string"
        }
      ],
      "stateMutability": "view",
      "type": "function"
    },
    {
      "inputs": [],
      "name": "numberOfJurors",
      "outputs": [
        {
          "internalType": "uint256",
          "name": "",
          "type": "uint256"
        }
      ],
      "stateMutability": "view",
      "type": "function"
    },
    {
      "inputs": [
        {
          "internalType": "uint256",
          "name": "",
          "type": "uint256"
        }
      ],
      "name": "reportIDToDispute",
      "outputs": [
        {
          "internalType": "uint256",
          "name": "disputeID",
          "type": "uint256"
        },
        {
          "internalType": "bool",
          "name": "isExecuted",
          "type": "bool"
        }
      ],
      "stateMutability": "view",
      "type": "function"
    },
    {
      "inputs": [
        {
          "internalType": "uint256",
          "name": "_reportID",
          "type": "uint256"
        }
      ],
      "name": "requestArbitration",
      "outputs": [],
      "stateMutability": "payable",
      "type": "function"
    }
  ],
  "bytecode": "0x60806040523480156200001157600080fd5b506040516200108b3803806200108b8339810160408190526200003491620000d7565b600080546001600160a01b03808a166001600160a01b031992831617909255600180548984169083161790556002805488841690831617905560038054928716929091169190911790556004839055600582905560066200009682826200029a565b505050505050505062000366565b80516001600160a01b0381168114620000bc57600080fd5b919050565b634e487b7160e01b600052604160045260246000fd5b600080600080600080600060e0888a031215620000f357600080fd5b620000fe88620000a4565b965060206200010f818a01620000a4565b96506200011f60408a01620000a4565b95506200012f60608a01620000a4565b60808a015160a08b015160c08c015192975090955093506001600160401b03808211156200015c57600080fd5b818b0191508b601f8301126200017157600080fd5b815181811115620001865762000186620000c1565b604051601f8201601f19908116603f01168101908382118183101715620001b157620001b1620000c1565b816040528281528e86848701011115620001ca57600080fd5b600093505b82841015620001ee5784840186015181850187015292850192620001cf565b600086848301015280965050505050505092959891949750929550565b600181811c908216806200022057607f821691505b6020821081036200024157634e487b7160e01b600052602260045260246000fd5b50919050565b601f8211156200029557600081815260208120601f850160051c81016020861015620002705750805b601f850160051c820191505b8181101562000291578281556001016200027c565b5050505b505050565b81516001600160401b03811115620002b657620002b6620000c1565b620002ce81620002c784546200020b565b8462000247565b602080601f831160018114620003065760008415620002ed5750858301515b600019600386901b1c1916600185901b17855562000291565b600085815260208120601f198616915b82811015620003375788860151825594840194600190910190840162000316565b5085821015620003565787850151600019600388901b60f8161c191681555b5050505050600190811b01905550565b610d1580620003766000396000f3fe6080604052600436106100bd5760003560e01c8063936b74991161006f578063936b7499146101ba5780639fdd0f9914610206578063a1e55f8c14610226578063d0ab122614610246578063dc3909ea14610266578063e4c0aaf41461027c578063f98a4eca1461029c57600080fd5b8063058431eb146100c25780630c340a24146100eb57806331402a571461012357806354c725f11461013857806355538ac51461015857806365319d061461017a5780636bb6cd861461019a575b600080fd5b3480156100ce57600080fd5b506100d860045481565b6040519081526020015b60405180910390f35b3480156100f757600080fd5b5060005461010b906001600160a01b031681565b6040516001600160a01b0390911681526020016100e2565b610136610131366004610837565b6102bc565b005b34801561014457600080fd5b50610136610153366004610837565b61045f565b34801561016457600080fd5b5061016d61048e565b6040516100e29190610896565b34801561018657600080fd5b50610136610195366004610837565b61051c565b3480156101a657600080fd5b5060035461010b906001600160a01b031681565b3480156101c657600080fd5b506101f16101d5366004610837565b6007602052600090815260409020805460019091015460ff1682565b604080519283529015156020830152016100e2565b34801561021257600080fd5b5060025461010b906001600160a01b031681565b34801561023257600080fd5b506101366102413660046108f7565b61054b565b34801561025257600080fd5b5060015461010b906001600160a01b031681565b34801561027257600080fd5b506100d860055481565b34801561028857600080fd5b5061013661029736600461098c565b610585565b3480156102a857600080fd5b506101366102b7366004610837565b6105d1565b6000818152600760205260409020541561032d5760405162461bcd60e51b815260206004820152602760248201527f4469737075746520616c7265616479206372656174656420666f722074686973604482015266081c995c1bdc9d60ca1b60648201526084015b60405180910390fd5b60045460055460408051602081019390935282810191909152805180830382018152606083019182905260035463f7434ea960e01b909252916000916001600160a01b03169063f7434ea990610387908590606401610896565b602060405180830381865afa1580156103a4573d6000803e3d6000fd5b505050506040513d601f19601f820116820180604052508101906103c891906109b5565b6002805460405163e2c7981b60e01b81529293506000926001600160a01b039091169163e2c7981b913491610404918891600691600401610a08565b60206040518083038185885af1158015610422573d6000803e3d6000fd5b50505050506040513d601f19601f8201168201806040525081019061044791906109b5565b60009485526007602052604090942093909355505050565b6000546001600160a01b031633146104895760405162461bcd60e51b815260040161032490610aac565b600555565b6006805461049b906109ce565b80601f01602080910402602001604051908101604052809291908181526020018280546104c7906109ce565b80156105145780601f106104e957610100808354040283529160200191610514565b820191906000526020600020905b8154815290600101906020018083116104f757829003601f168201915b505050505081565b6000546001600160a01b031633146105465760405162461bcd60e51b815260040161032490610aac565b600455565b6000546001600160a01b031633146105755760405162461bcd60e51b815260040161032490610aac565b60066105818282610b32565b5050565b6000546001600160a01b031633146105af5760405162461bcd60e51b815260040161032490610aac565b600080546001600160a01b0319166001600160a01b0392909216919091179055565b600081815260076020526040812080549091036106245760405162461bcd60e51b8152602060048201526011602482015270111a5cdc1d5d19481b9bdd08199bdd5b99607a1b6044820152606401610324565b600181015460ff161561066c5760405162461bcd60e51b815260206004820152601060248201526f105b1c9958591e48195e1958dd5d195960821b6044820152606401610324565b60035481546040516371d8039f60e11b8152600481019190915260006024820181905291829182916001600160a01b03169063e3b0073e90604401600060405180830381865afa1580156106c4573d6000803e3d6000fd5b505050506040513d6000823e601f3d908101601f191682016040526106ec9190810190610c07565b9250925092506000836001148015610702575081155b801561072957506005548360018151811061071f5761071f610cc9565b6020026020010151145b9050806107835760405162461bcd60e51b815260206004820152602260248201527f4172626974726174696f6e206372697465726961206e6f742066756c66696c6c604482015261195960f21b6064820152608401610324565b6001858101805460ff191682179055546040516329a10dfb60e01b81526004810188905282151560248201526001600160a01b03909116906329a10dfb90604401600060405180830381600087803b1580156107de57600080fd5b505af11580156107f2573d6000803e3d6000fd5b505050507f3e1f37cf2119f398f8479ffbf7e2115c0548f79511848e3816e0994607efc2378660405161082791815260200190565b60405180910390a1505050505050565b60006020828403121561084957600080fd5b5035919050565b6000815180845260005b818110156108765760208185018101518683018201520161085a565b506000602082860101526020601f19601f83011685010191505092915050565b6020815260006108a96020830184610850565b9392505050565b634e487b7160e01b600052604160045260246000fd5b604051601f8201601f1916810167ffffffffffffffff811182821017156108ef576108ef6108b0565b604052919050565b6000602080838503121561090a57600080fd5b823567ffffffffffffffff8082111561092257600080fd5b818501915085601f83011261093657600080fd5b813581811115610948576109486108b0565b61095a601f8201601f191685016108c6565b9150808252868482850101111561097057600080fd5b8084840185840137600090820190930192909252509392505050565b60006020828403121561099e57600080fd5b81356001600160a01b03811681146108a957600080fd5b6000602082840312156109c757600080fd5b5051919050565b600181811c908216806109e257607f821691505b602082108103610a0257634e487b7160e01b600052602260045260246000fd5b50919050565b606081526000610a1b6060830186610850565b60208382038185015260008654610a31816109ce565b80855260018281168015610a4c5760018114610a6657610a94565b60ff1984168787015282151560051b870186019450610a94565b8a6000528560002060005b84811015610a8c578154898201890152908301908701610a71565b880187019550505b50505050809350505050826040830152949350505050565b6020808252601d908201527f4e6f7420617574686f72697a65643a20676f7665726e6f72206f6e6c79000000604082015260600190565b601f821115610b2d57600081815260208120601f850160051c81016020861015610b0a5750805b601f850160051c820191505b81811015610b2957828155600101610b16565b5050505b505050565b815167ffffffffffffffff811115610b4c57610b4c6108b0565b610b6081610b5a84546109ce565b84610ae3565b602080601f831160018114610b955760008415610b7d5750858301515b600019600386901b1c1916600185901b178555610b29565b600085815260208120601f198616915b82811015610bc457888601518255948401946001909101908401610ba5565b5085821015610be25787850151600019600388901b60f8161c191681555b5050505050600190811b01905550565b80518015158114610c0257600080fd5b919050565b600080600060608486031215610c1c57600080fd5b8351925060208085015167ffffffffffffffff80821115610c3c57600080fd5b818701915087601f830112610c5057600080fd5b815181811115610c6257610c626108b0565b8060051b9150610c738483016108c6565b818152918301840191848101908a841115610c8d57600080fd5b938501935b83851015610cab57845182529385019390850190610c92565b809750505050505050610cc060408501610bf2565b90509250925092565b634e487b7160e01b600052603260045260246000fdfea2646970667358221220c7b14d7d61dfb276760396148dd059eb458a8a8bb41f46158a5feba7b993568a64736f6c63430008120033",
  "linkReferences": {},
  "deployedLinkReferences": {}
}